:1000000012C054C12AC051C028C027C01BC125C07E
:1000100024C023C0E8C221C020C01FC01EC01DC014
:100020001CC01BC01AC011241FBECFE5D4E0DEBF28
:10003000CDBF10E0A0E6B0E0ECEEF6E002C0059027
:100040000D92AC36B107D9F710E0ACE6B0E001C0D4
:100050001D92A639B107E1F701C0D2CFCFE5D4E0B8
:10006000DEBFCDBFAB98A39A80D222D3789483E62B
:100070000000815087FFFCCF83E60000815087FF9E
:10008000FCCFF5CF89B78F7789BF88E085BD14BCD9
:1000900080B7826080BF8AE085BD89B7806889BFEC
:1000A000109271001092700008951F920F920FB677
:1000B0000F9211242F933F938F939F93C19A809116
:1000C0006C008823B9F089B78F7789BF88E085BD38
:1000D00014BC80B7826080BF8AE085BD89B7806824
:1000E00089BF10927100109270008DE483BD109250
:1000F0006C009EC020917000309171008091600072
:100100009091610082179307D0F489B78F7789BFE8
:1001100088E085BD8F9380916E0080FFAD9881FF50
:10012000909882FF919883FF939884FF949885FF1D
:10013000959886FF969887FF97988F9179C02F5F43
:100140003F4F309371002093700080918D0099276C
:1001500082179307B8F1AD9880918E00992720916E
:1001600070003091710082179307B8F5909A8091D2
:100170008F00992782179307B8F5919A8091900084
:10018000992782179307B8F5939A80919100992740
:1001900082179307B8F5949A809192009927821755
:1001A0009307B8F5959A8091930099278217930742
:1001B000B8F5969A80919400992782179307B8F51D
:1001C000979A36C0AD9A80918E0099272091700041
:1001D000309171008217930748F2909880918F00B8
:1001E00099278217930748F2919880919000992758
:1001F0008217930748F2939880919100992782176C
:10020000930748F294988091920099278217930758
:1002100048F295988091930099278217930748F2A6
:1002200096988091940099278217930748F297989F
:10023000C1989F918F913F912F910F900FBE0F907A
:100240001F9018951F920F920FB60F9211248F9343
:100250009F9380916D00882311F185B398E08927E1
:1002600085BB89B78F7789BF95BD14BC85EF83BDEA
:1002700080B7826080BF8BE085BD89B7806889BF09
:1002800081E080936C008091620083302CF01092AA
:10029000620010926F0003C08F5F809362009F9195
:1002A0008F910F900FBE0F901F9018951F920F9275
:1002B0000FB60F9211242F933F934F935F936F9339
:1002C0007F938F939F93AF93BF93EF93FF939091FF
:1002D0006D00992309F069C089B78F7789BF88E0DD
:1002E00085BD94BD85EF83BD80B7826080BF8BE004
:1002F00085BD89B7806889BF81E080936C001092CA
:1003000071001092700080916F00882309F086C000
:100310008091620087FD8DC02CB58DB59927582F2F
:100320004427420F511DCA01815596448758934175
:1003300070F58091670090916800909366008093BB
:1003400065008091690090916A00909368008093A5
:10035000670050936A004093690020E030E042E07B
:10036000E5E6F0E08191919163E070E0ABD1260F7A
:10037000371F415047FFF6CFC9016DE470E0A2D1AD
:10038000CB014F979093610080936000C09888E004
:100390008EBD1DBC1CBC8AE08EBD10926F001092F9
:1003A000620085B78D7F85BFCFC088B331E08327DA
:1003B00088BB1092620020916F00233008F040C08B
:1003C00085B78D7F85BF83E08DBD84E88CBD2223FA
:1003D00079F480EF90E0909361008093600080E278
:1003E0009EE49BBD8ABD8AE08EBD89B7806189BFCE
:1003F00088E097E090937300809372002F5F2093C2
:100400006F0084E893E0909375008093740090935C
:100410007700809376001092780096C08FEF9FEF60
:100420009BBD8ABD8FEF809362008091620087FF41
:1004300073CF80EF90E09093610080936000A7CF2E
:100440002CB58DB59927582F4427420F511D87E2AF
:1004500041315807B0F580917800E82FFF27EE0F63
:10046000FF1FEC58FF4F408351838823C1F5309321
:10047000780060E070E041E0E4E7F0E08191919184
:10048000680F791F415047FFF9CF8091720090911A
:1004900073006817790708F042C091E080E09B0183
:1004A0003695279543E025383407E0F08823D1F0CE
:1004B0002A583340E8F180916300909164000A96D5
:1004C0001FC040E050E080917800E82FFF27EE0F3A
:1004D000FF1FEC58FF4F40835183882341F2109255
:1004E0007800C7CF43E024383407A0F4992391F073
:1004F0002F57334018F580916300909164000A975C
:100500009093640080936300892F99278BBD80911D
:1005100063008ABD709373006093720015C08617E4
:10052000970718F490E081E0BACF90E0892FB7CF19
:1005300080916300909164000596E2CF8091630002
:10054000909164000597DCCFFF91EF91BF91AF913F
:100550009F918F917F916F915F914F913F912F91DB
:100560000F900FBE0F901F9018950F931F9349E0A7
:1005700050E06FEF70E08DE890E09DD009E010E072
:10058000A80160E070E08BE790E095D0A80160E002
:1005900070E084E890E08FD0C098C198B89AB99A7A
:1005A000AD98A59A12BA8BEF81BB28E025BD8DE4EA
:1005B00083BD89B78F7789BF1FBC8FEF9FEF9BBD2E
:1005C0008ABD1DBC1CBC2EBD89B7806189BF85B7A3
:1005D0008D7F85BF85B7816085BF8BB780648BBFFA
:1005E0001F910F91089578941F920F920FB60F925A
:1005F00011242F938F939F93AF93BF93EF93FF9308
:100600002EB12FB180916B00803801F1909179006B
:10061000983030F020936E0080E880936B003CC0EF
:10062000A92FBB27FD01E357FF4F2095208397306B
:1006300048F480917A008823F9F0A558BF4FFD0156
:1006400081818FB99F5F9093790026C0822F99276F
:100650008F7090708A30910591F00597E9F41092AF
:100660007A001092790010926B00207120936D0037
:10067000809184008FB910C0AC57BF4FE0CF81E0AC
:1006800080937A001092790080917B008FB910924C
:100690006B00207120936D00FF91EF91BF91AF919E
:1006A0009F918F912F910F900FBE0F901F901895D3
:1006B00087EC8DB90895DC0101C06D934150504025
:1006C000E0F70895AA1BBB1B51E107C0AA1FBB1F7F
:1006D000A617B70710F0A61BB70B881F991F5A95CE
:0C06E000A9F780959095BC01CD0108950C
:0C06EC00F000FF204E204E204E204E80DB
:00000001FF
